{
  "address": "0xe7f1725E7734CE288F8367e1Bb143E90bb3F0512",
  "abi": [
    {
      "inputs": [
        {
          "internalType": "address",
          "name": "priceFeedAddress",
          "type": "address"
        }
      ],
      "stateMutability": "nonpayable",
      "type": "constructor"
    },
    {
      "inputs": [],
      "name": "fundMe__NotOwner",
      "type": "error"
    },
    {
      "stateMutability": "payable",
      "type": "fallback"
    },
    {
      "inputs": [],
      "name": "MINIMUM_USD",
      "outputs": [
        {
          "internalType": "uint256",
          "name": "",
          "type": "uint256"
        }
      ],
      "stateMutability": "view",
      "type": "function"
    },
    {
      "inputs": [],
      "name": "cheaperWithdraw",
      "outputs": [],
      "stateMutability": "nonpayable",
      "type": "function"
    },
    {
      "inputs": [],
      "name": "fund",
      "outputs": [],
      "stateMutability": "payable",
      "type": "function"
    },
    {
      "inputs": [
        {
          "internalType": "address",
          "name": "funder",
          "type": "address"
        }
      ],
      "name": "getAddressToAmountFunded",
      "outputs": [
        {
          "internalType": "uint256",
          "name": "",
          "type": "uint256"
        }
      ],
      "stateMutability": "view",
      "type": "function"
    },
    {
      "inputs": [
        {
          "internalType": "uint256",
          "name": "index",
          "type": "uint256"
        }
      ],
      "name": "getFunders",
      "outputs": [
        {
          "internalType": "address",
          "name": "",
          "type": "address"
        }
      ],
      "stateMutability": "view",
      "type": "function"
    },
    {
      "inputs": [],
      "name": "getOWner",
      "outputs": [
        {
          "internalType": "address",
          "name": "",
          "type": "address"
        }
      ],
      "stateMutability": "view",
      "type": "function"
    },
    {
      "inputs": [],
      "name": "getPriceFeed",
      "outputs": [
        {
          "internalType": "contract AggregatorV3Interface",
          "name": "",
          "type": "address"
        }
      ],
      "stateMutability": "view",
      "type": "function"
    },
    {
      "inputs": [],
      "name": "getVersion",
      "outputs": [
        {
          "internalType": "uint256",
          "name": "",
          "type": "uint256"
        }
      ],
      "stateMutability": "view",
      "type": "function"
    },
    {
      "inputs": [],
      "name": "withdraw",
      "outputs": [],
      "stateMutability": "nonpayable",
      "type": "function"
    },
    {
      "stateMutability": "payable",
      "type": "receive"
    }
  ],
  "transactionHash": "0x29f61fccc273e17817fcbc0cc00fc93403264143e8235433907d7f8e0aa0a92b",
  "args": [
    "0x5FbDB2315678afecb367f032d93F642f64180aa3"
  ],
  "numDeployments": 1,
  "solcInputHash": "25ab05875cb12dca1501372664da7c15",
  "bytecode": "0x60a06040523480156200001157600080fd5b506040516200140038038062001400833981810160405281019062000037919062000120565b3373ffffffffffffffffffffffffffffffffffffffff1660808173ffffffffffffffffffffffffffffffffffffffff1660601b8152505080600260006101000a81548173ffffffffffffffffffffffffffffffffffffffff021916908373ffffffffffffffffffffffffffffffffffffffff1602179055505062000152565b600080fd5b600073ffffffffffffffffffffffffffffffffffffffff82169050919050565b6000620000e882620000bb565b9050919050565b620000fa81620000db565b81146200010657600080fd5b50565b6000815190506200011a81620000ef565b92915050565b600060208284031215620001395762000138620000b6565b5b6000620001498482850162000109565b91505092915050565b60805160601c61127a6200018660003960008181610474015281816106c3015281816107130152610909015261127a6000f3fe60806040526004361061008a5760003560e01c80636b69a592116100595780636b69a5921461015f5780636c3bc0921461018a5780639e87a5cd146101b5578063b60d4288146101e0578063be2693f0146101ea57610099565b80630343fb25146100a35780630d8e6e2c146100e05780633a7b6c741461010b5780633ccfd60b1461014857610099565b3661009957610097610201565b005b6100a1610201565b005b3480156100af57600080fd5b506100ca60048036038101906100c59190610b85565b61033b565b6040516100d79190610bcb565b60405180910390f35b3480156100ec57600080fd5b506100f5610383565b6040516101029190610bcb565b60405180910390f35b34801561011757600080fd5b50610132600480360381019061012d9190610c12565b61042a565b60405161013f9190610c4e565b60405180910390f35b34801561015457600080fd5b5061015d610472565b005b34801561016b57600080fd5b506101746106b2565b6040516101819190610bcb565b60405180910390f35b34801561019657600080fd5b5061019f6106bf565b6040516101ac9190610c4e565b60405180910390f35b3480156101c157600080fd5b506101ca6106e7565b6040516101d79190610cc8565b60405180910390f35b6101e8610201565b005b3480156101f657600080fd5b506101ff610711565b005b6802b5e3af16b1880000610240600260009054906101000a900473ffffffffffffffffffffffffffffffffffffffff163461099f90919063ffffffff16565b1015610281576040517f08c379a000000000000000000000000000000000000000000000000000000000815260040161027890610d40565b60405180910390fd5b346000803373ffffffffffffffffffffffffffffffffffffffff1673ffffffffffffffffffffffffffffffffffffffff16815260200190815260200160002060008282546102cf9190610d8f565b925050819055506001339080600181540180825580915050600190039060005260206000200160009091909190916101000a81548173ffffffffffffffffffffffffffffffffffffffff021916908373ffffffffffffffffffffffffffffffffffffffff160217905550565b60008060008373ffffffffffffffffffffffffffffffffffffffff1673ffffffffffffffffffffffffffffffffffffffff168152602001908152602001600020549050919050565b6000600260009054906101000a900473ffffffffffffffffffffffffffffffffffffffff1673ffffffffffffffffffffffffffffffffffffffff166354fd4d506040518163ffffffff1660e01b815260040160206040518083038186803b1580156103ed57600080fd5b505afa158015610401573d6000803e3d6000fd5b505050506040513d601f19601f820116820180604052508101906104259190610dfa565b905090565b6000600182815481106104405761043f610e27565b5b9060005260206000200160009054906101000a900473ffffffffffffffffffffffffffffffffffffffff169050919050565b7f000000000000000000000000000000000000000000000000000000000000000073ffffffffffffffffffffffffffffffffffffffff163373ffffffffffffffffffffffffffffffffffffffff16146104f7576040517f73525c0400000000000000000000000000000000000000000000000000000000815260040160405180910390fd5b60005b6001805490508110156105a25760006001828154811061051d5761051c610e27565b5b9060005260206000200160009054906101000a900473ffffffffffffffffffffffffffffffffffffffff16905060008060008373ffffffffffffffffffffffffffffffffffffffff1673ffffffffffffffffffffffffffffffffffffffff1681526020019081526020016000208190555050808061059a90610e56565b9150506104fa565b50600067ffffffffffffffff8111156105be576105bd610e9f565b5b6040519080825280602002602001820160405280156105ec5781602001602082028036833780820191505090505b5060019080519060200190610602929190610a7b565b5060003373ffffffffffffffffffffffffffffffffffffffff164760405161062990610eff565b60006040518083038185875af1925050503d8060008114610666576040519150601f19603f3d011682016040523d82523d6000602084013e61066b565b606091505b50509050806106af576040517f08c379a00000000000000000000000000000000000000000000000000000000081526004016106a690610f60565b60405180910390fd5b50565b6802b5e3af16b188000081565b60007f0000000000000000000000000000000000000000000000000000000000000000905090565b6000600260009054906101000a900473ffffffffffffffffffffffffffffffffffffffff16905090565b7f000000000000000000000000000000000000000000000000000000000000000073ffffffffffffffffffffffffffffffffffffffff163373ffffffffffffffffffffffffffffffffffffffff1614610796576040517f73525c0400000000000000000000000000000000000000000000000000000000815260040160405180910390fd5b6000600180548060200260200160405190810160405280929190818152602001828054801561081a57602002820191906000526020600020905b8160009054906101000a900473ffffffffffffffffffffffffffffffffffffffff1673ffffffffffffffffffffffffffffffffffffffff16815260200190600101908083116107d0575b5050505050905060005b81518110156108a457600082828151811061084257610841610e27565b5b6020026020010151905060008060008373ffffffffffffffffffffffffffffffffffffffff1673ffffffffffffffffffffffffffffffffffffffff1681526020019081526020016000208190555050808061089c90610e56565b915050610824565b50600067ffffffffffffffff8111156108c0576108bf610e9f565b5b6040519080825280602002602001820160405280156108ee5781602001602082028036833780820191505090505b5060019080519060200190610904929190610a7b565b5060007f000000000000000000000000000000000000000000000000000000000000000073ffffffffffffffffffffffffffffffffffffffff164760405161094b90610eff565b60006040518083038185875af1925050503d8060008114610988576040519150601f19603f3d011682016040523d82523d6000602084013e61098d565b606091505b505090508061099b57600080fd5b5050565b6000806109ab836109db565b90506000670de0b6b3a764000085836109c49190610f80565b6109ce9190611009565b9050809250505092915050565b6000808273ffffffffffffffffffffffffffffffffffffffff1663feaf968c6040518163ffffffff1660e01b815260040160a06040518083038186803b158015610a2457600080fd5b505afa158015610a38573d6000803e3d6000fd5b505050506040513d601f19601f82011682018060405250810190610a5c91906110b2565b5050509150506402540be40081610a73919061112d565b915050919050565b828054828255906000526020600020908101928215610af4579160200282015b82811115610af35782518260006101000a81548173ffffffffffffffffffffffffffffffffffffffff021916908373ffffffffffffffffffffffffffffffffffffffff16021790555091602001919060010190610a9b565b5b509050610b019190610b05565b5090565b5b80821115610b1e576000816000905550600101610b06565b5090565b600080fd5b600073ffffffffffffffffffffffffffffffffffffffff82169050919050565b6000610b5282610b27565b9050919050565b610b6281610b47565b8114610b6d57600080fd5b50565b600081359050610b7f81610b59565b92915050565b600060208284031215610b9b57610b9a610b22565b5b6000610ba984828501610b70565b91505092915050565b6000819050919050565b610bc581610bb2565b82525050565b6000602082019050610be06000830184610bbc565b92915050565b610bef81610bb2565b8114610bfa57600080fd5b50565b600081359050610c0c81610be6565b92915050565b600060208284031215610c2857610c27610b22565b5b6000610c3684828501610bfd565b91505092915050565b610c4881610b47565b82525050565b6000602082019050610c636000830184610c3f565b92915050565b6000819050919050565b6000610c8e610c89610c8484610b27565b610c69565b610b27565b9050919050565b6000610ca082610c73565b9050919050565b6000610cb282610c95565b9050919050565b610cc281610ca7565b82525050565b6000602082019050610cdd6000830184610cb9565b92915050565b600082825260208201905092915050565b7f596f75206e65656420746f207370656e64206d6f726520455448210000000000600082015250565b6000610d2a601b83610ce3565b9150610d3582610cf4565b602082019050919050565b60006020820190508181036000830152610d5981610d1d565b9050919050565b7f4e487b7100000000000000000000000000000000000000000000000000000000600052601160045260246000fd5b6000610d9a82610bb2565b9150610da583610bb2565b9250827fffffffffffffffffffffffffffffffffffffffffffffffffffffffffffffffff03821115610dda57610dd9610d60565b5b828201905092915050565b600081519050610df481610be6565b92915050565b600060208284031215610e1057610e0f610b22565b5b6000610e1e84828501610de5565b91505092915050565b7f4e487b7100000000000000000000000000000000000000000000000000000000600052603260045260246000fd5b6000610e6182610bb2565b91507fffffffffffffffffffffffffffffffffffffffffffffffffffffffffffffffff821415610e9457610e93610d60565b5b600182019050919050565b7f4e487b7100000000000000000000000000000000000000000000000000000000600052604160045260246000fd5b600081905092915050565b50565b6000610ee9600083610ece565b9150610ef482610ed9565b600082019050919050565b6000610f0a82610edc565b9150819050919050565b7f43616c6c206661696c6564000000000000000000000000000000000000000000600082015250565b6000610f4a600b83610ce3565b9150610f5582610f14565b602082019050919050565b60006020820190508181036000830152610f7981610f3d565b9050919050565b6000610f8b82610bb2565b9150610f9683610bb2565b9250817fffffffffffffffffffffffffffffffffffffffffffffffffffffffffffffffff0483118215151615610fcf57610fce610d60565b5b828202905092915050565b7f4e487b7100000000000000000000000000000000000000000000000000000000600052601260045260246000fd5b600061101482610bb2565b915061101f83610bb2565b92508261102f5761102e610fda565b5b828204905092915050565b600069ffffffffffffffffffff82169050919050565b6110598161103a565b811461106457600080fd5b50565b60008151905061107681611050565b92915050565b6000819050919050565b61108f8161107c565b811461109a57600080fd5b50565b6000815190506110ac81611086565b92915050565b600080600080600060a086880312156110ce576110cd610b22565b5b60006110dc88828901611067565b95505060206110ed8882890161109d565b94505060406110fe88828901610de5565b935050606061110f88828901610de5565b925050608061112088828901611067565b9150509295509295909350565b60006111388261107c565b91506111438361107c565b9250827f7fffffffffffffffffffffffffffffffffffffffffffffffffffffffffffffff048211600084136000841316161561118257611181610d60565b5b817f800000000000000000000000000000000000000000000000000000000000000005831260008412600084131616156111bf576111be610d60565b5b827f800000000000000000000000000000000000000000000000000000000000000005821260008413600084121616156111fc576111fb610d60565b5b827f7fffffffffffffffffffffffffffffffffffffffffffffffffffffffffffffff058212600084126000841216161561123957611238610d60565b5b82820290509291505056fea264697066735822122066a22ee6f23402b6fed27d227c6f5f825e1b98e56f5f366dc6ca08c54ed82e7364736f6c63430008080033",
  "devdoc": {
    "author": "Mk ",
    "details": "this implments price feed as our library ",
    "kind": "dev",
    "methods": {},
    "title": "A contract for crowd_founding ",
    "version": 1
  },
  "userdoc": {
    "kind": "user",
    "methods": {
      "fund()": {
        "notice": "this function funds the contract "
      }
    },
    "notice": "This contract is demo a sample funding contract ",
    "version": 1
  },
  "storageLayout": {
    "storage": [
      {
        "astId": 59,
        "contract": "contracts/FundMe.sol:FundMe",
        "label": "s_addressToAmountFunded",
        "offset": 0,
        "slot": "0",
        "type": "t_mapping(t_address,t_uint256)"
      },
      {
        "astId": 62,
        "contract": "contracts/FundMe.sol:FundMe",
        "label": "s_funders",
        "offset": 0,
        "slot": "1",
        "type": "t_array(t_address)dyn_storage"
      },
      {
        "astId": 74,
        "contract": "contracts/FundMe.sol:FundMe",
        "label": "s_priceFeed",
        "offset": 0,
        "slot": "2",
        "type": "t_contract(AggregatorV3Interface)45"
      }
    ],
    "types": {
      "t_address": {
        "encoding": "inplace",
        "label": "address",
        "numberOfBytes": "20"
      },
      "t_array(t_address)dyn_storage": {
        "base": "t_address",
        "encoding": "dynamic_array",
        "label": "address[]",
        "numberOfBytes": "32"
      },
      "t_contract(AggregatorV3Interface)45": {
        "encoding": "inplace",
        "label": "contract AggregatorV3Interface",
        "numberOfBytes": "20"
      },
      "t_mapping(t_address,t_uint256)": {
        "encoding": "mapping",
        "key": "t_address",
        "label": "mapping(address => uint256)",
        "numberOfBytes": "32",
        "value": "t_uint256"
      },
      "t_uint256": {
        "encoding": "inplace",
        "label": "uint256",
        "numberOfBytes": "32"
      }
    }
  }
}